{
  "_format": "hh-sol-artifact-1",
  "contractName": "Voting",
  "sourceName": "contracts/Voting.sol",
  "abi": [
    {
      "inputs": [
        {
          "internalType": "string[]",
          "name": "_optionNames",
          "type": "string[]"
        },
        {
          "internalType": "uint256",
          "name": "_startTime",
          "type": "uint256"
        },
        {
          "internalType": "uint256",
          "name": "_endTime",
          "type": "uint256"
        },
        {
          "internalType": "address",
          "name": "_admin",
          "type": "address"
        }
      ],
      "stateMutability": "nonpayable",
      "type": "constructor"
    },
    {
      "inputs": [
        {
          "internalType": "address",
          "name": "owner",
          "type": "address"
        }
      ],
      "name": "OwnableInvalidOwner",
      "type": "error"
    },
    {
      "inputs": [
        {
          "internalType": "address",
          "name": "account",
          "type": "address"
        }
      ],
      "name": "OwnableUnauthorizedAccount",
      "type": "error"
    },
    {
      "anonymous": false,
      "inputs": [
        {
          "indexed": true,
          "internalType": "address",
          "name": "previousOwner",
          "type": "address"
        },
        {
          "indexed": true,
          "internalType": "address",
          "name": "newOwner",
          "type": "address"
        }
      ],
      "name": "OwnershipTransferred",
      "type": "event"
    },
    {
      "inputs": [
        {
          "internalType": "address[]",
          "name": "_voters",
          "type": "address[]"
        }
      ],
      "name": "authorizeVoters",
      "outputs": [],
      "stateMutability": "nonpayable",
      "type": "function"
    },
    {
      "inputs": [],
      "name": "endTime",
      "outputs": [
        {
          "internalType": "uint256",
          "name": "",
          "type": "uint256"
        }
      ],
      "stateMutability": "view",
      "type": "function"
    },
    {
      "inputs": [],
      "name": "getResults",
      "outputs": [
        {
          "components": [
            {
              "internalType": "uint256",
              "name": "id",
              "type": "uint256"
            },
            {
              "internalType": "string",
              "name": "name",
              "type": "string"
            },
            {
              "internalType": "uint256",
              "name": "voteCount",
              "type": "uint256"
            }
          ],
          "internalType": "struct Voting.Option[]",
          "name": "",
          "type": "tuple[]"
        }
      ],
      "stateMutability": "view",
      "type": "function"
    },
    {
      "inputs": [
        {
          "internalType": "address",
          "name": "",
          "type": "address"
        }
      ],
      "name": "hasVoted",
      "outputs": [
        {
          "internalType": "bool",
          "name": "",
          "type": "bool"
        }
      ],
      "stateMutability": "view",
      "type": "function"
    },
    {
      "inputs": [
        {
          "internalType": "address",
          "name": "",
          "type": "address"
        }
      ],
      "name": "isAuthorized",
      "outputs": [
        {
          "internalType": "bool",
          "name": "",
          "type": "bool"
        }
      ],
      "stateMutability": "view",
      "type": "function"
    },
    {
      "inputs": [
        {
          "internalType": "uint256",
          "name": "",
          "type": "uint256"
        }
      ],
      "name": "options",
      "outputs": [
        {
          "internalType": "uint256",
          "name": "id",
          "type": "uint256"
        },
        {
          "internalType": "string",
          "name": "name",
          "type": "string"
        },
        {
          "internalType": "uint256",
          "name": "voteCount",
          "type": "uint256"
        }
      ],
      "stateMutability": "view",
      "type": "function"
    },
    {
      "inputs": [],
      "name": "owner",
      "outputs": [
        {
          "internalType": "address",
          "name": "",
          "type": "address"
        }
      ],
      "stateMutability": "view",
      "type": "function"
    },
    {
      "inputs": [],
      "name": "renounceOwnership",
      "outputs": [],
      "stateMutability": "nonpayable",
      "type": "function"
    },
    {
      "inputs": [],
      "name": "startTime",
      "outputs": [
        {
          "internalType": "uint256",
          "name": "",
          "type": "uint256"
        }
      ],
      "stateMutability": "view",
      "type": "function"
    },
    {
      "inputs": [],
      "name": "startVoting",
      "outputs": [],
      "stateMutability": "nonpayable",
      "type": "function"
    },
    {
      "inputs": [],
      "name": "stopVoting",
      "outputs": [],
      "stateMutability": "nonpayable",
      "type": "function"
    },
    {
      "inputs": [
        {
          "internalType": "address",
          "name": "newOwner",
          "type": "address"
        }
      ],
      "name": "transferOwnership",
      "outputs": [],
      "stateMutability": "nonpayable",
      "type": "function"
    },
    {
      "inputs": [
        {
          "internalType": "uint256",
          "name": "_optionId",
          "type": "uint256"
        }
      ],
      "name": "vote",
      "outputs": [],
      "stateMutability": "nonpayable",
      "type": "function"
    },
    {
      "inputs": [],
      "name": "votingActive",
      "outputs": [
        {
          "internalType": "bool",
          "name": "",
          "type": "bool"
        }
      ],
      "stateMutability": "view",
      "type": "function"
    }
  ],
  "bytecode": "0x60806040523480156200001157600080fd5b5060405162001fbe38038062001fbe833981810160405281019062000037919062000625565b80600073ffffffffffffffffffffffffffffffffffffffff168173ffffffffffffffffffffffffffffffffffffffff1603620000ad5760006040517f1e4fbdf7000000000000000000000000000000000000000000000000000000008152600401620000a49190620006c7565b60405180910390fd5b620000be816200023260201b60201c565b5060005b8451811015620001745760016040518060600160405280838152602001878481518110620000f557620000f4620006e4565b5b602002602001015181526020016000815250908060018154018082558091505060019003906000526020600020906003020160009091909190915060008201518160000155602082015181600101908162000151919062000954565b5060408201518160020155505080806200016b9062000a6a565b915050620000c2565b50818310620001ba576040517f08c379a0000000000000000000000000000000000000000000000000000000008152600401620001b19062000b3e565b60405180910390fd5b824210620001ff576040517f08c379a0000000000000000000000000000000000000000000000000000000008152600401620001f69062000bb0565b60405180910390fd5b82600481905550816005819055506001600660006101000a81548160ff0219169083151502179055505050505062000bd2565b60008060009054906101000a900473ffffffffffffffffffffffffffffffffffffffff169050816000806101000a81548173ffffffffffffffffffffffffffffffffffffffff021916908373ffffffffffffffffffffffffffffffffffffffff1602179055508173ffffffffffffffffffffffffffffffffffffffff168173ffffffffffffffffffffffffffffffffffffffff167f8be0079c531659141344cd1fd0a4f28419497f9722a3daafe3b4186f6b6457e060405160405180910390a35050565b6000604051905090565b600080fd5b600080fd5b600080fd5b6000601f19601f8301169050919050565b7f4e487b7100000000000000000000000000000000000000000000000000000000600052604160045260246000fd5b6200035a826200030f565b810181811067ffffffffffffffff821117156200037c576200037b62000320565b5b80604052505050565b600062000391620002f6565b90506200039f82826200034f565b919050565b600067ffffffffffffffff821115620003c257620003c162000320565b5b602082029050602081019050919050565b600080fd5b600080fd5b600067ffffffffffffffff821115620003fb57620003fa62000320565b5b62000406826200030f565b9050602081019050919050565b60005b838110156200043357808201518184015260208101905062000416565b60008484015250505050565b6000620004566200045084620003dd565b62000385565b905082815260208101848484011115620004755762000474620003d8565b5b6200048284828562000413565b509392505050565b600082601f830112620004a257620004a16200030a565b5b8151620004b48482602086016200043f565b91505092915050565b6000620004d4620004ce84620003a4565b62000385565b90508083825260208201905060208402830185811115620004fa57620004f9620003d3565b5b835b818110156200054857805167ffffffffffffffff8111156200052357620005226200030a565b5b8086016200053289826200048a565b85526020850194505050602081019050620004fc565b5050509392505050565b600082601f8301126200056a57620005696200030a565b5b81516200057c848260208601620004bd565b91505092915050565b6000819050919050565b6200059a8162000585565b8114620005a657600080fd5b50565b600081519050620005ba816200058f565b92915050565b600073ffffffffffffffffffffffffffffffffffffffff82169050919050565b6000620005ed82620005c0565b9050919050565b620005ff81620005e0565b81146200060b57600080fd5b50565b6000815190506200061f81620005f4565b92915050565b6000806000806080858703121562000642576200064162000300565b5b600085015167ffffffffffffffff81111562000663576200066262000305565b5b620006718782880162000552565b94505060206200068487828801620005a9565b93505060406200069787828801620005a9565b9250506060620006aa878288016200060e565b91505092959194509250565b620006c181620005e0565b82525050565b6000602082019050620006de6000830184620006b6565b92915050565b7f4e487b7100000000000000000000000000000000000000000000000000000000600052603260045260246000fd5b600081519050919050565b7f4e487b7100000000000000000000000000000000000000000000000000000000600052602260045260246000fd5b600060028204905060018216806200076657607f821691505b6020821081036200077c576200077b6200071e565b5b50919050565b60008190508160005260206000209050919050565b60006020601f8301049050919050565b600082821b905092915050565b600060088302620007e67fffffffffffffffffffffffffffffffffffffffffffffffffffffffffffffffff82620007a7565b620007f28683620007a7565b95508019841693508086168417925050509392505050565b6000819050919050565b6000620008356200082f620008298462000585565b6200080a565b62000585565b9050919050565b6000819050919050565b620008518362000814565b6200086962000860826200083c565b848454620007b4565b825550505050565b600090565b6200088062000871565b6200088d81848462000846565b505050565b5b81811015620008b557620008a960008262000876565b60018101905062000893565b5050565b601f8211156200090457620008ce8162000782565b620008d98462000797565b81016020851015620008e9578190505b62000901620008f88562000797565b83018262000892565b50505b505050565b600082821c905092915050565b6000620009296000198460080262000909565b1980831691505092915050565b600062000944838362000916565b9150826002028217905092915050565b6200095f8262000713565b67ffffffffffffffff8111156200097b576200097a62000320565b5b6200098782546200074d565b62000994828285620008b9565b600060209050601f831160018114620009cc5760008415620009b7578287015190505b620009c3858262000936565b86555062000a33565b601f198416620009dc8662000782565b60005b8281101562000a0657848901518255600182019150602085019450602081019050620009df565b8683101562000a26578489015162000a22601f89168262000916565b8355505b6001600288020188555050505b505050505050565b7f4e487b7100000000000000000000000000000000000000000000000000000000600052601160045260246000fd5b600062000a778262000585565b91507fffffffffffffffffffffffffffffffffffffffffffffffffffffffffffffffff820362000aac5762000aab62000a3b565b5b600182019050919050565b600082825260208201905092915050565b7f456c20696e6963696f20646562652073657220616e7465732071756520656c2060008201527f66696e0000000000000000000000000000000000000000000000000000000000602082015250565b600062000b2660238362000ab7565b915062000b338262000ac8565b604082019050919050565b6000602082019050818103600083015262000b598162000b17565b9050919050565b7f456c20696e6963696f20646562652073657220656e20656c2066757475726f00600082015250565b600062000b98601f8362000ab7565b915062000ba58262000b60565b602082019050919050565b6000602082019050818103600083015262000bcb8162000b89565b9050919050565b6113dc8062000be26000396000f3fe608060405234801561001057600080fd5b50600436106100ea5760003560e01c80634717f97c1161008c5780638da5cb5b116100665780638da5cb5b14610215578063f2fde38b14610233578063fab2f86b1461024f578063fe9fbb8014610259576100ea565b80634717f97c146101cf578063715018a6146101ed57806378e97925146101f7576100ea565b80631ec6b60a116100c85780631ec6b60a146101575780633197cbb614610161578063408e27271461017f578063409e22051461019d576100ea565b80630121b93f146100ef57806309d36a7d1461010b57806309eef43e14610127575b600080fd5b61010960048036038101906101049190610ac4565b610289565b005b61012560048036038101906101209190610ca8565b610557565b005b610141600480360381019061013c9190610cf1565b6105f4565b60405161014e9190610d39565b60405180910390f35b61015f610614565b005b610169610639565b6040516101769190610d63565b60405180910390f35b61018761063f565b6040516101949190610d39565b60405180910390f35b6101b760048036038101906101b29190610ac4565b610652565b6040516101c693929190610dfd565b60405180910390f35b6101d7610714565b6040516101e49190610fa6565b60405180910390f35b6101f5610819565b005b6101ff61082d565b60405161020c9190610d63565b60405180910390f35b61021d610833565b60405161022a9190610fd7565b60405180910390f35b61024d60048036038101906102489190610cf1565b61085c565b005b6102576108e2565b005b610273600480360381019061026e9190610cf1565b610907565b6040516102809190610d39565b60405180910390f35b600660009054906101000a900460ff166102d8576040517f08c379a00000000000000000000000000000000000000000000000000000000081526004016102cf90611064565b60405180910390fd5b60045442101561031d576040517f08c379a0000000000000000000000000000000000000000000000000000000008152600401610314906110d0565b60405180910390fd5b6005544210610361576040517f08c379a00000000000000000000000000000000000000000000000000000000081526004016103589061113c565b60405180910390fd5b600360003373ffffffffffffffffffffffffffffffffffffffff1673ffffffffffffffffffffffffffffffffffffffff16815260200190815260200160002060009054906101000a900460ff166103ed576040517f08c379a00000000000000000000000000000000000000000000000000000000081526004016103e4906111a8565b60405180910390fd5b600260003373ffffffffffffffffffffffffffffffffffffffff1673ffffffffffffffffffffffffffffffffffffffff16815260200190815260200160002060009054906101000a900460ff161561047a576040517f08c379a000000000000000000000000000000000000000000000000000000000815260040161047190611214565b60405180910390fd5b60018054905081106104c1576040517f08c379a00000000000000000000000000000000000000000000000000000000081526004016104b890611280565b60405180910390fd5b6001600260003373ffffffffffffffffffffffffffffffffffffffff1673ffffffffffffffffffffffffffffffffffffffff16815260200190815260200160002060006101000a81548160ff0219169083151502179055506001818154811061052d5761052c6112a0565b5b9060005260206000209060030201600201600081548092919061054f906112fe565b919050555050565b61055f610927565b60005b81518110156105f057600160036000848481518110610584576105836112a0565b5b602002602001015173ffffffffffffffffffffffffffffffffffffffff1673ffffffffffffffffffffffffffffffffffffffff16815260200190815260200160002060006101000a81548160ff02191690831515021790555080806105e8906112fe565b915050610562565b5050565b60026020528060005260406000206000915054906101000a900460ff1681565b61061c610927565b6001600660006101000a81548160ff021916908315150217905550565b60055481565b600660009054906101000a900460ff1681565b6001818154811061066257600080fd5b906000526020600020906003020160009150905080600001549080600101805461068b90611375565b80601f01602080910402602001604051908101604052809291908181526020018280546106b790611375565b80156107045780601f106106d957610100808354040283529160200191610704565b820191906000526020600020905b8154815290600101906020018083116106e757829003601f168201915b5050505050908060020154905083565b60606001805480602002602001604051908101604052809291908181526020016000905b8282101561081057838290600052602060002090600302016040518060600160405290816000820154815260200160018201805461077590611375565b80601f01602080910402602001604051908101604052809291908181526020018280546107a190611375565b80156107ee5780601f106107c3576101008083540402835291602001916107ee565b820191906000526020600020905b8154815290600101906020018083116107d157829003601f168201915b5050505050815260200160028201548152505081526020019060010190610738565b50505050905090565b610821610927565b61082b60006109ae565b565b60045481565b60008060009054906101000a900473ffffffffffffffffffffffffffffffffffffffff16905090565b610864610927565b600073ffffffffffffffffffffffffffffffffffffffff168173ffffffffffffffffffffffffffffffffffffffff16036108d65760006040517f1e4fbdf70000000000000000000000000000000000000000000000000000000081526004016108cd9190610fd7565b60405180910390fd5b6108df816109ae565b50565b6108ea610927565b6000600660006101000a81548160ff021916908315150217905550565b60036020528060005260406000206000915054906101000a900460ff1681565b61092f610a72565b73ffffffffffffffffffffffffffffffffffffffff1661094d610833565b73ffffffffffffffffffffffffffffffffffffffff16146109ac57610970610a72565b6040517f118cdaa70000000000000000000000000000000000000000000000000000000081526004016109a39190610fd7565b60405180910390fd5b565b60008060009054906101000a900473ffffffffffffffffffffffffffffffffffffffff169050816000806101000a81548173ffffffffffffffffffffffffffffffffffffffff021916908373ffffffffffffffffffffffffffffffffffffffff1602179055508173ffffffffffffffffffffffffffffffffffffffff168173ffffffffffffffffffffffffffffffffffffffff167f8be0079c531659141344cd1fd0a4f28419497f9722a3daafe3b4186f6b6457e060405160405180910390a35050565b600033905090565b6000604051905090565b600080fd5b600080fd5b6000819050919050565b610aa181610a8e565b8114610aac57600080fd5b50565b600081359050610abe81610a98565b92915050565b600060208284031215610ada57610ad9610a84565b5b6000610ae884828501610aaf565b91505092915050565b600080fd5b6000601f19601f8301169050919050565b7f4e487b7100000000000000000000000000000000000000000000000000000000600052604160045260246000fd5b610b3f82610af6565b810181811067ffffffffffffffff82111715610b5e57610b5d610b07565b5b80604052505050565b6000610b71610a7a565b9050610b7d8282610b36565b919050565b600067ffffffffffffffff821115610b9d57610b9c610b07565b5b602082029050602081019050919050565b600080fd5b600073ffffffffffffffffffffffffffffffffffffffff82169050919050565b6000610bde82610bb3565b9050919050565b610bee81610bd3565b8114610bf957600080fd5b50565b600081359050610c0b81610be5565b92915050565b6000610c24610c1f84610b82565b610b67565b90508083825260208201905060208402830185811115610c4757610c46610bae565b5b835b81811015610c705780610c5c8882610bfc565b845260208401935050602081019050610c49565b5050509392505050565b600082601f830112610c8f57610c8e610af1565b5b8135610c9f848260208601610c11565b91505092915050565b600060208284031215610cbe57610cbd610a84565b5b600082013567ffffffffffffffff811115610cdc57610cdb610a89565b5b610ce884828501610c7a565b91505092915050565b600060208284031215610d0757610d06610a84565b5b6000610d1584828501610bfc565b91505092915050565b60008115159050919050565b610d3381610d1e565b82525050565b6000602082019050610d4e6000830184610d2a565b92915050565b610d5d81610a8e565b82525050565b6000602082019050610d786000830184610d54565b92915050565b600081519050919050565b600082825260208201905092915050565b60005b83811015610db8578082015181840152602081019050610d9d565b60008484015250505050565b6000610dcf82610d7e565b610dd98185610d89565b9350610de9818560208601610d9a565b610df281610af6565b840191505092915050565b6000606082019050610e126000830186610d54565b8181036020830152610e248185610dc4565b9050610e336040830184610d54565b949350505050565b600081519050919050565b600082825260208201905092915050565b6000819050602082019050919050565b610e7081610a8e565b82525050565b600082825260208201905092915050565b6000610e9282610d7e565b610e9c8185610e76565b9350610eac818560208601610d9a565b610eb581610af6565b840191505092915050565b6000606083016000830151610ed86000860182610e67565b5060208301518482036020860152610ef08282610e87565b9150506040830151610f056040860182610e67565b508091505092915050565b6000610f1c8383610ec0565b905092915050565b6000602082019050919050565b6000610f3c82610e3b565b610f468185610e46565b935083602082028501610f5885610e57565b8060005b85811015610f945784840389528151610f758582610f10565b9450610f8083610f24565b925060208a01995050600181019050610f5c565b50829750879550505050505092915050565b60006020820190508181036000830152610fc08184610f31565b905092915050565b610fd181610bd3565b82525050565b6000602082019050610fec6000830184610fc8565b92915050565b7f4c6120766f746163696f6e206861207369646f2066696e616c697a616461207060008201527f6f7220656c2061646d696e000000000000000000000000000000000000000000602082015250565b600061104e602b83610d89565b915061105982610ff2565b604082019050919050565b6000602082019050818103600083015261107d81611041565b9050919050565b7f4c6120766f746163696f6e2061756e206e6f20686120636f6d656e7a61646f00600082015250565b60006110ba601f83610d89565b91506110c582611084565b602082019050919050565b600060208201905081810360008301526110e9816110ad565b9050919050565b7f4c6120766f746163696f6e2079612068612066696e616c697a61646f00000000600082015250565b6000611126601c83610d89565b9150611131826110f0565b602082019050919050565b6000602082019050818103600083015261115581611119565b9050919050565b7f4e6f206573746173206175746f72697a61646f207061726120766f7461720000600082015250565b6000611192601e83610d89565b915061119d8261115c565b602082019050919050565b600060208201905081810360008301526111c181611185565b9050919050565b7f59612068617320766f7461646f00000000000000000000000000000000000000600082015250565b60006111fe600d83610d89565b9150611209826111c8565b602082019050919050565b6000602082019050818103600083015261122d816111f1565b9050919050565b7f4f7063696f6e20696e76616c6964610000000000000000000000000000000000600082015250565b600061126a600f83610d89565b915061127582611234565b602082019050919050565b600060208201905081810360008301526112998161125d565b9050919050565b7f4e487b7100000000000000000000000000000000000000000000000000000000600052603260045260246000fd5b7f4e487b7100000000000000000000000000000000000000000000000000000000600052601160045260246000fd5b600061130982610a8e565b91507fffffffffffffffffffffffffffffffffffffffffffffffffffffffffffffffff820361133b5761133a6112cf565b5b600182019050919050565b7f4e487b7100000000000000000000000000000000000000000000000000000000600052602260045260246000fd5b6000600282049050600182168061138d57607f821691505b6020821081036113a05761139f611346565b5b5091905056fea26469706673582212201f768f9e96a08933992b2db1aafbe70079eac25cc25245aff82431ba4240977364736f6c63430008140033",
  "linkReferences": {},
  "deployedLinkReferences": {}
}